:100000000C942A000C9447000C9447000C94470071
:100010000C9447000C9447000C9447000C94470044
:100020000C9447000C9447000C9498120C942812DE
:100030000C9447000C9447000C9447000C94470024
:100040000C9447000C9447000C9447000C94470014
:100050000C94470011241FBECFE5D8E0DEBFCDBF12
:1000600010E0A0E6B0E0EEE0FBE202C005900D92E9
:10007000A038B107D9F710E0A0E8B0E001C01D92A8
:10008000AB38B107E1F70E9498130C9485150C94D6
:100090000000EF92FF920F931F937B018C0120E0F1
:1000A00030E040E05FE40E94F50388238CF0C80153
:1000B000B70120E030E040E05FE40E94C1010E940F
:1000C00055049B01AC01205030404040504806C0D0
:1000D000C801B7010E9455049B01AC01B901CA01D6
:1000E0001F910F91FF90EF900895A0E0B0E0EBE733
:1000F000F0E00C944E15DC012B01FA019C9192303A
:1001000008F439C1EB018881823008F433C194309E
:1001100069F4843009F02FC111969C91119789815F
:10012000981709F428C1A0E6B0E025C1843009F48D
:1001300021C18230A9F4923009F01DC19A01AD01AC
:1001400088E0EA010990AE01E90109929E0181501F
:10015000C1F7E201898111969C918923818308C1AD
:10016000923009F407C112962D903C901397EB0141
:100170008A819B811496AD90BD90CD90DC901797AD
:10018000EC80FD800E811F819101281B390BB90184
:1001900037FF04C066277727621B730B6032710537
:1001A0000CF061C0121613066CF537014801062EDB
:1001B00004C096948794779467940A94D2F721E0C8
:1001C00030E040E050E004C0220F331F441F551FB1
:1001D0006A95D2F721503040404050402E213F21B7
:1001E00040235123211531054105510521F021E01E
:1001F00030E040E050E079018A01E628F72808293C
:1002000019293CC0232BD1F1260E371E350146019A
:10021000062E04C096948794779467940A94D2F734
:1002200021E030E040E050E004C0220F331F441FC3
:10023000551F6A95D2F721503040404050402A2146
:100240003B214C215D21211531054105510521F04E
:1002500021E030E040E050E059016A01A628B728CB
:10026000C828D9280BC0821593052CF01C01AA249C
:10027000BB24650103C0EE24FF24870111969C91E5
:10028000D20111968C91981709F445C0992339F041
:10029000A80197012A193B094C095D0906C0A6016E
:1002A00095012E193F09400B510B57FD08C01182D3
:1002B0003382228224833583468357831DC081E0A5
:1002C00081833382228288279927DC01821B930B4A
:1002D000A40BB50B84839583A683B7830DC0220F2F
:1002E000331F441F551F24833583468357838281E0
:1002F000938101979383828324813581468157813D
:10030000DA01C9010197A109B1098F5F9F4FAF4F72
:10031000BF4328F30BC0918333822282EA0CFB1C7B
:100320000C1D1D1DE482F5820683178383E0808304
:10033000248135814681578157FF1AC0C901AA27F8
:1003400097FDA095BA2F81709070A070B0705695EF
:10035000479537952795822B932BA42BB52B848318
:100360009583A683B7838281938101969383828349
:10037000DF0101C0D201CD01CDB7DEB7E2E10C94BF
:100380006A15A0E2B0E0E7ECF1E00C945A1569833D
:100390007A838B839C832D833E834F835887E9E048
:1003A000EE2EF12CEC0EFD1ECE010196B7010E943F
:1003B0007E058E010F5E1F4FCE010596B8010E948B
:1003C0007E058A8991E089278A8BC701B801AE0131
:1003D000475E5F4F0E9475000E94A904A096E6E068
:1003E0000C947615A0E2B0E0E8EFF1E00C945A1519
:1003F00069837A838B839C832D833E834F835887C5
:10040000F9E0EF2EF12CEC0EFD1ECE010196B701A6
:100410000E947E058E010F5E1F4FCE010596B8012A
:100420000E947E05C701B801AE01475E5F4F0E9482
:1004300075000E94A904A096E6E00C947615A0E24F
:10044000B0E0E5E2F2E00C944E1569837A838B8389
:100450009C832D833E834F835887CE010196BE0136
:10046000675F7F4F0E947E05CE010596BE016F5EDD
:100470007F4F0E947E059985923088F0898982306D
:10048000C8F0943019F4823051F404C0843029F457
:10049000923081F480E690E0C6C0923049F420E0CA
:1004A0009A858A89981321E02A87CE010996BBC0D4
:1004B000823049F420E09A858A89981321E02A8BBA
:1004C000CE014196B0C02D843E844F8458886D88FB
:1004D0007E888F88988CEE24FF248701AA24BB2471
:1004E000650140E050E060E070E0E0E0F0E0C10174
:1004F00081709070892BE9F0E60CF71C081D191D1E
:100500009A01AB012A0D3B1D4C1D5D1D80E090E062
:10051000A0E0B0E0E614F7040805190520F481E036
:1005200090E0A0E0B0E0BA01A901480F591F6A1F8E
:100530007B1FAA0CBB1CCC1CDD1C97FE08C081E0F5
:1005400090E0A0E0B0E0A82AB92ACA2ADB2A3196B6
:10055000E032F10549F0660C771C881C991C569412
:10056000479437942794C3CFFA85EA892B893C892D
:100570008B859C85280F391F2E5F3F4F17C0CA01FE
:1005800081709070892B61F016950795F794E79428
:1005900080E090E0A0E0B0E8E82AF92A0A2B1B2BC3
:1005A00076956795579547952F5F3F4F77FDE7CF36
:1005B0000CC0440F551F661F771F17FD4160EE0CDE
:1005C000FF1C001F111F21503040403090E05907A0
:1005D00090E0690790E4790760F32B8F3C8FDB0193
:1005E000CA018F779070A070B07080349105A1051A
:1005F000B10561F447FD0AC0E114F10401051105DC
:1006000029F0405C5F4F6F4F7F4F40781A8EFE1786
:1006100011F081E08A8F4D8F5E8F6F8F78A383E01A
:10062000898FCE0149960E94A904A096E2E10C941C
:100630006A15A8E1B0E0EFE1F3E00C945615698388
:100640007A838B839C832D833E834F835887B9E0C5
:10065000EB2EF12CEC0EFD1ECE010196B7010E948F
:100660007E058E010F5E1F4FCE010596B8010E94D8
:100670007E052985223008F47EC03989323010F495
:10068000B8017CC08A859A8989278A87243011F02D
:10069000223031F4231709F06EC060E670E06EC0BE
:1006A000343039F41D861E861F86188A1C861B86E8
:1006B00004C0323021F484E08987B7015FC02B8504
:1006C0003C858B899C89281B390B3C872B87ED84C3
:1006D000FE840F851889AD88BE88CF88D88CEA142F
:1006E000FB040C051D0540F4EE0CFF1C001F111F40
:1006F000215030403C872B8720E030E040E050E044
:1007000080E090E0A0E0B0E460E070E0EA14FB0478
:100710000C051D0540F0282B392B4A2B5B2BEA18C2
:10072000FB080C091D09B695A79597958795EE0CC2
:10073000FF1C001F111F6F5F7F4F6F31710531F775
:10074000DA01C9018F779070A070B0708034910584
:10075000A105B10561F427FD0AC0E114F10401050A
:10076000110529F0205C3F4F4F4F5F4F20782D87B8
:100770003E874F87588BBE01675F7F4FCB010E943A
:10078000A9046896EAE00C947215A8E1B0E0EBECDD
:10079000F3E00C945A1569837A838B839C832D83B1
:1007A0003E834F83588789E0E82EF12CEC0EFD1E26
:1007B000CE010196B7010E947E058E010F5E1F4F8C
:1007C000CE010596B8010E947E058985823040F0F1
:1007D0008989823028F0C701B8010E94F60501C05E
:1007E0008FEF6896E6E00C947615A8E1B0E0EBEFA9
:1007F000F3E00C945A1569837A838B839C832D8351
:100800003E834F83588789E0E82EF12CEC0EFD1EC5
:10081000CE010196B7010E947E058E010F5E1F4F2B
:10082000CE010596B8010E947E058985823040F090
:100830008989823028F0C701B8010E94F60501C0FD
:100840008FEF6896E6E00C947615A8E1B0E0EBE255
:10085000F4E00C945A1569837A838B839C832D83EF
:100860003E834F83588789E0E82EF12CEC0EFD1E65
:10087000CE010196B7010E947E058E010F5E1F4FCB
:10088000CE010596B8010E947E058985823040F030
:100890008989823028F0C701B8010E94F60501C09D
:1008A00081E06896E6E00C947615ACE0B0E0EBE50C
:1008B000F4E00C945E1569837A838B839C83CE016C
:1008C0000196BE016B5F7F4F0E947E058D81823055
:1008D00061F1823050F1843021F48E81882351F10E
:1008E0002EC02F81388537FD20C06E812F31310514
:1008F0001CF06623F9F023C08EE190E0821B930B7D
:1009000029853A854B855C8504C056954795379572
:1009100027958A95D2F76623B1F05095409530958A
:1009200021953F4F4F4F5F4F0EC020E030E040E039
:1009300050E009C02FEF3FEF4FEF5FE704C020E02A
:1009400030E040E050E8B901CA012C96E2E00C9496
:100950007A15DF92EF92FF920F931F93FC01E480D0
:10096000F58006811781D1808081823048F480E053
:1009700090E0A0E1B0E0E82AF92A0A2B1B2BA5C0E1
:10098000843009F49FC0823021F4EE24FF248701D3
:1009900005C0E114F1040105110519F4E0E0F0E0EF
:1009A00096C0628173819FEF623879070CF05BC05B
:1009B00022E83FEF261B370B2A3131052CF020E0CF
:1009C00030E040E050E02AC0B801A701022E04C088
:1009D00076956795579547950A94D2F781E090E010
:1009E000A0E0B0E004C0880F991FAA1FBB1F2A9582
:1009F000D2F70197A109B1098E219F21A023B1232C
:100A00000097A105B10521F081E090E0A0E0B0E001
:100A10009A01AB01282B392B4A2B5B2BDA01C90138
:100A20008F779070A070B07080349105A105B105EA
:100A300039F427FF09C0205C3F4F4F4F5F4F04C080
:100A4000215C3F4F4F4F5F4FE0E0F0E02030A0E0EF
:100A50003A07A0E04A07A0E45A0710F0E1E0F0E00E
:100A600079018A0127C06038710564F5FB01E158FE
:100A7000FF4FD801C7018F779070A070B07080349D
:100A80009105A105B10539F4E7FE0DC080E490E0C1
:100A9000A0E0B0E004C08FE390E0A0E0B0E0E80E9A
:100AA000F91E0A1F1B1F17FF05C016950795F7941F
:100AB000E794319687E016950795F794E7948A9521
:100AC000D1F705C0EE24FF248701EFEFF0E06E2F91
:100AD000679566276795902F9F77D794DD24D794E5
:100AE0008E2F8695492F462B582F5D29B701CA01B5
:100AF0001F910F91FF90EF90DF900895FC01DB01B3
:100B0000408151812281622F6F7770E0221F22275E
:100B1000221F9381892F880F822B282F30E0991F65
:100B20009927991F11969C93119721153105A9F5C5
:100B3000411551056105710511F482E037C082E865
:100B40009FEF13969C938E9312979A01AB0167E0E7
:100B5000220F331F441F551F6A95D1F783E08C93F2
:100B60000DC0220F331F441F551F12968D919C916B
:100B70001397019713969C938E931297203080E0E1
:100B8000380780E0480780E4580758F314962D93FF
:100B90003D934D935C93179708952F3F310579F45A
:100BA000411551056105710519F484E08C93089590
:100BB00064FF03C081E08C9312C01C9210C02F57B9
:100BC000304013963C932E93129783E08C9387E0EA
:100BD000440F551F661F771F8A95D1F770641496CE
:100BE0004D935D936D937C93179708951F93DC014C
:100BF000FB019C91923008F447C08081823008F458
:100C000043C0943051F411961C91843099F5818140
:100C1000682F70E0611B71093FC0843021F0923071
:100C200031F48230B9F18181882389F12DC0119688
:100C30001C9111978230F1F081811817D9F4129626
:100C40002D913C911397828193818217930794F0A1
:100C500028173907BCF014968D919D910D90BC9189
:100C6000A02D2481358146815781281739074A07ED
:100C70005B0718F4112341F00AC082179307A407F9
:100C8000B50740F4112319F061E070E005C06FEF83
:100C90007FEF02C060E070E0CB011F910895DF9309
:100CA000CF93CDB7DEB7EAE3F0E08FEF8083E7E3E1
:100CB000F0E083EF8083E4E3F0E08FE08083E1E322
:100CC000F0E08FE08083EBE3F0E01082E8E3F0E017
:100CD0008CE08083E5E3F0E088EF8083E2E3F0E0FE
:100CE0008FEF8083CF91DF910895DF93CF93CDB7BE
:100CF000DEB72E970FB6F894DEBF0FBECDBF8A8346
:100D00006B834C8381E089838A81843008F00CC135
:100D10008B81883008F008C18C81813021F08C8172
:100D2000882309F001C18A81282F30E03E872D8772
:100D30008D859E858130910509F44FC02D853E85B6
:100D4000223031052CF48D859E85009771F0EDC021
:100D50002D853E852230310509F477C08D859E852D
:100D60008330910509F4A9C0E0C08C81282F30E0C0
:100D70003C872B878B859C850097D1F02B853C8504
:100D80002130310509F0D1C0AAE3B0E0EAE3F0E098
:100D90008081482F8B81282F30E081E090E0022E67
:100DA00002C0880F991F0A94E2F7842B8C93BDC070
:100DB000AAE3B0E0EAE3F0E08081482F8B81282F9E
:100DC00030E081E090E0022E02C0880F991F0A9463
:100DD000E2F7809584238C93A8C08C81282F30E083
:100DE0003A87298789859A850097D1F029853A85A0
:100DF0002130310509F099C0A7E3B0E0E7E3F0E066
:100E00008081482F8B81282F30E081E090E0022EF6
:100E100002C0880F991F0A94E2F7842B8C9385C037
:100E2000A7E3B0E0E7E3F0E08081482F8B81282F33
:100E300030E081E090E0022E02C0880F991F0A94F2
:100E4000E2F7809584238C9370C08C81282F30E04A
:100E500038872F838F8198850097D1F02F8138852F
:100E60002130310509F061C0A4E3B0E0E4E3F0E033
:100E70008081482F8B81282F30E081E090E0022E86
:100E800002C0880F991F0A94E2F7842B8C934DC0FF
:100E9000A4E3B0E0E4E3F0E08081482F8B81282FC9
:100EA00030E081E090E0022E02C0880F991F0A9482
:100EB000E2F7809584238C9338C08C81282F30E012
:100EC0003E832D838D819E810097C9F02D813E81C7
:100ED0002130310551F5A1E3B0E0E1E3F0E080819C
:100EE000482F8B81282F30E081E090E0022E02C055
:100EF000880F991F0A94E2F7842B8C9316C0A1E304
:100F0000B0E0E1E3F0E08081482F8B81282F30E0D2
:100F100081E090E0022E02C0880F991F0A94E2F748
:100F2000809584238C9301C0198289812E960FB6F7
:100F3000F894DEBF0FBECDBFCF91DF910895DF9350
:100F4000CF9300D000D000D0CDB7DEB78A836B83BB
:100F50004C8381E089838B81883008F0E8C08A81E6
:100F6000282F30E03E832D838D819E818130910535
:100F700009F448C02D813E81223031052CF48D8149
:100F80009E81009771F0D1C02D813E8122303105C4
:100F900009F469C08D819E818330910509F494C064
:100FA000C4C08C818130A1F4ABE3B0E0EBE3F0E0AE
:100FB0008081482F8B81282F30E081E090E0022E45
:100FC00002C0880F991F0A94E2F7842B8C93B0C05B
:100FD0008C818823A9F4ABE3B0E0EBE3F0E08081FF
:100FE000482F8B81282F30E081E090E0022E02C054
:100FF000880F991F0A94E2F7809584238C9398C0F8
:10100000198296C08C818130A1F4A8E3B0E0E8E3B6
:10101000F0E08081482F8B81282F30E081E090E044
:10102000022E02C0880F991F0A94E2F7842B8C933A
:101030007FC08C818823A9F4A8E3B0E0E8E3F0E066
:101040008081482F8B81282F30E081E090E0022EB4
:1010500002C0880F991F0A94E2F7809584238C932D
:1010600067C0198265C08C818130A1F4A5E3B0E02E
:10107000E5E3F0E08081482F8B81282F30E081E08C
:1010800090E0022E02C0880F991F0A94E2F7842B89
:101090008C934EC08C818823A9F4A5E3B0E0E5E3EE
:1010A000F0E08081482F8B81282F30E081E090E0B4
:1010B000022E02C0880F991F0A94E2F780958423BC
:1010C0008C9336C0198234C08C818130A1F4A2E3A4
:1010D000B0E0E2E3F0E08081482F8B81282F30E000
:1010E00081E090E0022E02C0880F991F0A94E2F777
:1010F000842B8C931DC08C818823A9F4A2E3B0E0DB
:10110000E2E3F0E08081482F8B81282F30E081E0FE
:1011100090E0022E02C0880F991F0A94E2F7809592
:1011200084238C9305C0198203C0198201C01982DF
:10113000898126960FB6F894DEBF0FBECDBFCF9142
:10114000DF910895DF93CF93CDB7DEB727970FB622
:10115000F894DEBF0FBECDBF8A836B835D834C8363
:1011600081E089838B81883008F078C08C819D81F3
:10117000009709F473C08A81282F30E03F832E83C3
:101180004E815F814130510559F18E819F818230BE
:10119000910534F42E813F812115310569F05CC041
:1011A0004E815F814230510579F18E819F8183307C
:1011B000910509F43DC050C0E9E3F0E08081282F9B
:1011C00030E08B81882F90E0A90102C055954795AA
:1011D0008A95E2F7CA018170EC81FD8180833FC06E
:1011E000E6E3F0E08081282F30E08B81882F90E0CB
:1011F000A90102C0559547958A95E2F7CA01817009
:10120000EC81FD8180832BC0E3E3F0E08081282F17
:1012100030E08B81882F90E0A90102C05595479559
:101220008A95E2F7CA018170EC81FD81808317C045
:10123000E0E3F0E08081282F30E08B81882F90E080
:10124000A90102C0559547958A95E2F7CA018170B8
:10125000EC81FD81808303C0198201C019828981DC
:1012600027960FB6F894DEBF0FBECDBFCF91DF91AA
:101270000895DF93CF93CDB7DEB72D970FB6F894CF
:10128000DEBF0FBECDBF8A836B8381E089838B81F4
:10129000813021F08B81813009F07EC08A81282F36
:1012A00030E03D872C878C859D858130910571F1DB
:1012B0002C853D85223031052CF48C859D85009749
:1012C00069F069C02C853D8522303105B1F18C85EE
:1012D0009D858330910509F447C05DC08B81282F1F
:1012E00030E03B872A878A859B85009759F02A85BD
:1012F0003B852130310509F04FC0EAE3F0E08FEF84
:1013000080834AC0EAE3F0E0108246C08B81282F38
:1013100030E03987288788859985009751F028859E
:10132000398521303105C1F5E7E3F0E08FEF8083A7
:1013300033C0E7E3F0E010822FC08B81282F30E02C
:101340003F832E838E819F81009751F02E813F81B4
:101350002130310509F5E4E3F0E08FEF80831CC014
:10136000E4E3F0E0108218C08B81282F30E03D8349
:101370002C838C819D81009751F02C813D812130FF
:10138000310551F4E1E3F0E08FEF808305C0E1E344
:10139000F0E0108201C0198289812D960FB6F89471
:1013A000DEBF0FBECDBFCF91DF910895DF93CF9306
:1013B00000D000D00F92CDB7DEB78A836B8381E077
:1013C00089838A81282F30E03D832C838C819D8105
:1013D00081309105D1F02C813D81223031052CF4F2
:1013E0008C819D81009761F01FC02C813D8122304E
:1013F000310581F08C819D818330910581F014C08D
:10140000EBE3F0E08B81808310C0E8E3F0E08B81B8
:1014100080830BC0E5E3F0E08B81808306C0E2E3CC
:10142000F0E08B81808301C0198289810F900F9039
:101430000F900F900F90CF91DF910895DF93CF938E
:1014400000D000D000D0CDB7DEB78A837C836B8319
:1014500081E089838B819C810097E9F18A81282F23
:1014600030E03E832D838D819E8181309105E1F0B6
:101470002D813E81223031052CF48D819E81009793
:1014800061F027C02D813E8122303105A1F08D8190
:101490009E8183309105B1F01CC0E9E3F0E08081CA
:1014A000EB81FC81808318C0E6E3F0E08081EB8172
:1014B000FC81808311C0E3E3F0E08081EB81FC815B
:1014C00080830AC0E0E3F0E08081EB81FC818083CF
:1014D00003C0198201C01982898126960FB6F8943B
:1014E000DEBF0FBECDBFCF91DF910895DF93CF93C5
:1014F000CDB7DEB7AFE5B0E0EFE5F0E08081806822
:101500008C93CF91DF910895DF93CF93CDB7DEB762
:10151000AFE5B0E0EFE5F0E080818F778C93CF917D
:10152000DF910895DF93CF93CDB7DEB765970FB600
:10153000F894DEBF0FBECDBF9D8B8C8B1A8A81E0E5
:10154000898BEC89FD898FEF80838C899D89009739
:1015500009F4ECC0188AE5C08889882F90E0FC0166
:10156000E858FF4F908183E0692F40E00E949F0779
:101570001F86C1C08F85882F90E0FC01E458FF4F83
:1015800090819E012D5E3F4F83E0692FA9010E944B
:10159000A2088B89882309F0ABC080E090E0A0EA24
:1015A000B1E48B879C87AD87BE876B857C858D85F5
:1015B0009E8520E030E04AEF54E40E941F02DC01E7
:1015C000CB018F839887A987BA876F8178858985B2
:1015D0009A8520E030E040E85FE30E9425048823FC
:1015E0002CF481E090E09E838D833FC06F817885ED
:1015F00089859A8520E03FEF4FE757E40E94C503B5
:1016000018164CF56B857C858D859E8520E030E035
:1016100040E251E40E941F02DC01CB01BC01CD017C
:101620000E944900DC01CB019E838D830FC088ECB2
:1016300090E09C838B838B819C810197F1F79C8345
:101640008B838D819E8101979E838D838D819E8169
:10165000009769F714C06F81788589859A850E9403
:101660004900DC01CB019E838D838D819E819A830D
:10167000898389819A810197F1F79A8389838F857C
:10168000882F90E0FC01E458FF4F90819E012D5E71
:101690003F4F83E0692FA9010E94A2080FC08F85E8
:1016A000882F90E0FC01E458FF4F90819E012D5E51
:1016B0003F4F83E0692FA9010E94A2088B898823EC
:1016C00071F381E08A8B8889482F50E08F85282F1D
:1016D00030E0CA01880F991F880F991F820F931F4E
:1016E000FC01E859FF4F8081EC89FD89808307C0A8
:1016F0008F858F5F8F878F85843008F43BCF8889F3
:10170000882F90E0FC01E858FF4F908183E0692F1B
:1017100041E00E949F078A89882349F488898F5F66
:10172000888B8889843008F417CF01C0198A898989
:1017300065960FB6F894DEBF0FBECDBFCF91DF9197
:1017400008950F931F93DF93CF93CDB7DEB7CC549B
:10175000D0400FB6F894DEBF0FBECDBFFE01E75BF1
:10176000FF4F80E090E0ACE0B2E480839183A283FD
:10177000B3838E010B5B1F4FFE01E75BFF4F608160
:1017800071818281938120E030E04AEF54E40E942D
:101790001F02DC01CB01F80180839183A283B38314
:1017A000FE01EB5BFF4F608171818281938120E0BC
:1017B00030E040E85FE30E942504882344F4FE0102
:1017C000ED5BFF4F81E090E09183808364C0FE0178
:1017D000EB5BFF4F608171818281938120E03FEF5D
:1017E0004FE757E40E94C50318160CF043C0FE01F2
:1017F000E75BFF4F608171818281938120E030E05F
:1018000040E251E40E941F02DC01CB018E010D5B1E
:101810001F4FBC01CD010E944900DC01CB01F80142
:10182000918380831FC0FE01EF5BFF4F88EC90E047
:1018300091838083FE01EF5BFF4F8081918101974F
:10184000F1F7FE01EF5BFF4F91838083DE01AD5B1B
:10185000BF4FFE01ED5BFF4F808191810197119693
:101860009C938E93FE01ED5BFF4F808191810097E9
:10187000D1F624C08E010D5B1F4FFE01EB5BFF4FC5
:1018800060817181828193810E944900DC01CB01DA
:10189000F80191838083FE01ED5BFF4F8081918190
:1018A000FE01FF9691838083FE01FF9680819181E6
:1018B0000197F1F7FE01FF969183808388E30E94F0
:1018C000640E80E090E0A0E2B2E48BAF9CAFADAFDD
:1018D000BEAF6BAD7CAD8DAD9EAD2BEA3AEA4AE270
:1018E00050E40E941F02DC01CB018FAB98AFA9AF7F
:1018F000BAAF6FA978AD89AD9AAD20E030E040E88D
:101900005FE30E94250488231CF481E08EAB91C024
:101910006FA978AD89AD9AAD20E030E04FE753E490
:101920000E94C50318160CF07BC06BAD7CAD8DAD6D
:101930009EAD20E030E04AE754E40E941903DC0148
:10194000CB018AAB9BABACABBDAB6AA97BA98CA925
:101950009DA920E030E04AEF54E40E941F02DC0120
:10196000CB018EA79FA7A8ABB9AB6EA57FA588A911
:1019700099A920E030E040E85FE30E942504882335
:101980002CF481E090E09DA78CA73FC06EA57FA5B9
:1019900088A999A920E03FEF4FE757E40E94C503CB
:1019A00018164CF56AA97BA98CA99DA920E030E006
:1019B00040E251E40E941F02DC01CB01BC01CD01D9
:1019C0000E944900DC01CB019DA78CA70FC088ECC9
:1019D00090E09BA78AA78AA59BA50197F1F79BA7F3
:1019E0008AA78CA59DA501979DA78CA78CA59DA5D1
:1019F000009769F724C06EA57FA588A999A90E94C0
:101A00004900DC01CB019DA78CA78CA59DA599A7BA
:101A100088A788A599A50197F1F799A788A70FC06E
:101A20006FA978AD89AD9AAD0E944900DC01CB0168
:101A30008EAB8EA98FA38FA18A95F1F78FA38EE02D
:101A40000E94640E80E090E0A0E2B2E48BA39CA32D
:101A5000ADA3BEA36BA17CA18DA19EA12BEA3AEA06
:101A60004AE250E40E941F02DC01CB018F8F98A351
:101A7000A9A3BAA36F8D78A189A19AA120E030E033
:101A800040E85FE30E94250488231CF481E08E8FE8
:101A900091C06F8D78A189A19AA120E030E04FE735
:101AA00053E40E94C50318160CF07BC06BA17CA107
:101AB0008DA19EA120E030E04AE754E40E94190382
:101AC000DC01CB018A8F9B8FAC8FBD8F6A8D7B8DA4
:101AD0008C8D9D8D20E030E04AEF54E40E941F027F
:101AE000DC01CB018E8B9F8BA88FB98F6E897F898C
:101AF000888D998D20E030E040E85FE30E94250466
:101B000088232CF481E090E09D8B8C8B3FC06E8904
:101B10007F89888D998D20E03FEF4FE757E40E9441
:101B2000C50318164CF56A8D7B8D8C8D9D8D20E03C
:101B300030E040E251E40E941F02DC01CB01BC0115
:101B4000CD010E944900DC01CB019D8B8C8B0FC025
:101B500088EC90E09B8B8A8B8A899B890197F1F7AF
:101B60009B8B8A8B8C899D8901979D8B8C8B8C8913
:101B70009D89009769F724C06E897F89888D998D2A
:101B80000E944900DC01CB019D8B8C8B8C899D8947
:101B9000998B888B888999890197F1F7998B888B24
:101BA0000FC06F8D78A189A19AA10E944900DC0124
:101BB000CB018E8F8E8D8F878F858A95F1F78F87DA
:101BC00081E00E94640E80E090E0A0E0B0E48B87AA
:101BD0009C87AD87BE876B857C858D859E8520E043
:101BE00030E04AEF54E40E941F02DC01CB018F83F6
:101BF0009887A987BA876F81788589859A8520E03B
:101C000030E040E85FE30E94250488232CF481E063
:101C100090E09E838D833FC06F81788589859A850A
:101C200020E03FEF4FE757E40E94C50318164CF53C
:101C30006B857C858D859E8520E030E040E251E417
:101C40000E941F02DC01CB01BC01CD010E944900B2
:101C5000DC01CB019E838D830FC088EC90E09C83D8
:101C60008B838B819C810197F1F79C838B838D8182
:101C70009E8101979E838D838D819E81009769F758
:101C800014C06F81788589859A850E944900DC019E
:101C9000CB019E838D838D819E819A8389838981E7
:101CA0009A810197F1F79A83898386E00E94640EF6
:101CB000C45BDF4F0FB6F894DEBF0FBECDBFCF9130
:101CC000DF911F910F910895DF93CF93CDB7DEB7CA
:101CD00069970FB6F894DEBF0FBECDBF898F82E043
:101CE00060E040E00E949F0782E061E040E00E94E7
:101CF0009F0780E0698D0E94D60982E062E041E0A2
:101D00000E949F0780E090E0A0E8BFE38D8B9E8B50
:101D1000AF8BB88F6D897E898F89988D2BEA3AEACF
:101D20004AE250E40E941F02DC01CB01898B9A8BAE
:101D3000AB8BBC8B69897A898B899C8920E030E0E8
:101D400040E85FE30E94250488231CF481E0888B2F
:101D500091C069897A898B899C8920E030E04FE7BE
:101D600053E40E94C50318160CF07BC06D897E8970
:101D70008F89988D20E030E04AE754E40E941903EF
:101D8000DC01CB018C879D87AE87BF876C857D8505
:101D90008E859F8520E030E04AEF54E40E941F02C8
:101DA000DC01CB0188879987AA87BB8768857985FD
:101DB0008A859B8520E030E040E85FE30E942504AF
:101DC00088232CF481E090E09F838E833FC0688558
:101DD00079858A859B8520E03FEF4FE757E40E9495
:101DE000C50318164CF56C857D858E859F8520E092
:101DF00030E040E251E40E941F02DC01CB01BC0153
:101E0000CD010E944900DC01CB019F838E830FC06E
:101E100088EC90E09D838C838C819D810197F1F704
:101E20009D838C838E819F8101979F838E838E817A
:101E30009F81009769F724C0688579858A859B858D
:101E40000E944900DC01CB019F838E838E819F819C
:101E50009B838A838A819B810197F1F79B838A8385
:101E60000FC069897A898B899C890E944900DC01AD
:101E7000CB01888B8889898389818A95F1F7898349
:101E800082E062E040E00E949F0769960FB6F894F6
:101E9000DEBF0FBECDBFCF91DF910895DF93CF930B
:101EA000CDB7DEB769970FB6F894DEBF0FBECDBFD2
:101EB000898F82E060E041E00E949F0782E061E05C
:101EC00040E00E949F0780E0698D0E94D60982E071
:101ED00062E041E00E949F0780E090E0A0E8BFE35D
:101EE0008D8B9E8BAF8BB88F6D897E898F89988DF6
:101EF0002BEA3AEA4AE250E40E941F02DC01CB01DD
:101F0000898B9A8BAB8BBC8B69897A898B899C89ED
:101F100020E030E040E85FE30E94250488231CF4C1
:101F200081E0888B91C069897A898B899C8920E0BE
:101F300030E04FE753E40E94C50318160CF07BC055
:101F40006D897E898F89988D20E030E04AE754E4DE
:101F50000E941903DC01CB018C879D87AE87BF8768
:101F60006C857D858E859F8520E030E04AEF54E4C6
:101F70000E941F02DC01CB0188879987AA87BB8753
:101F8000688579858A859B8520E030E040E85FE3BD
:101F90000E94250488232CF481E090E09F838E83A7
:101FA0003FC0688579858A859B8520E03FEF4FE7B4
:101FB00057E40E94C50318164CF56C857D858E8507
:101FC0009F8520E030E040E251E40E941F02DC01E6
:101FD000CB01BC01CD010E944900DC01CB019F83F4
:101FE0008E830FC088EC90E09D838C838C819D81D3
:101FF0000197F1F79D838C838E819F8101979F8349
:102000008E838E819F81009769F724C068857985CA
:102010008A859B850E944900DC01CB019F838E83CA
:102020008E819F819B838A838A819B810197F1F7AF
:102030009B838A830FC069897A898B899C890E94D6
:102040004900DC01CB01888B8889898389818A9545
:10205000F1F7898382E062E040E00E949F07699681
:102060000FB6F894DEBF0FBECDBFCF91DF910895BC
:10207000DF93CF9300D00F92CDB7DEB79B838A83D7
:102080008A819B810097D9F019820EC08981282FFF
:1020900030E08A819B81FC01E20FF31F80810E9466
:1020A0004E0F89818F5F89838981282F30E08A8153
:1020B0009B81FC01E20FF31F8081882339F70F9089
:1020C0000F900F90CF91DF910895DF93CF93CDB70D
:1020D000DEB763970FB6F894DEBF0FBECDBF688B37
:1020E000798B8A8B9B8B1B8288899989AA89BB896A
:1020F0000097A105B10521F480E30E944E0F70C046
:1021000088899989AA89BB89BB230CF043C08DE2D9
:102110000E944E0F88899989AA89BB89B095A0959C
:10212000909581959F4FAF4FBF4F888B998BAA8B0E
:10213000BB8B30C088899989AA89BB892AE030E0A5
:1021400040E050E0BC01CD010E94FD14DC01CB0158
:102150008A838B81282F30E08A81482F405DCE0111
:102160000496FC01E20FF31F408388899989AA89AC
:10217000BB892AE030E040E050E0BC01CD010E9484
:10218000FD14DA01C901888B998BAA8BBB8B8B81DB
:102190008F5F8B8388899989AA89BB890097A1055C
:1021A000B10541F6198218C08B81282F30E0898152
:1021B000882F90E0A901481B590BCA019C012150AE
:1021C0003040CE010496FC01E20FF31F80810E9493
:1021D0004E0F89818F5F898399818B81981720F3B6
:1021E00063960FB6F894DEBF0FBECDBFCF91DF91DF
:1021F0000895DF93CF9300D000D00F92CDB7DEB714
:102200008A836B8381E089838B818832E0F48A81C1
:10221000282F30E03D832C838C819D818130910576
:1022200031F02C813D812230310531F00AC08B81A3
:1022300080580E94640E08C08B8180540E94640EF6
:1022400003C0198201C0198289810F900F900F90ED
:102250000F900F90CF91DF910895DF93CF9300D02F
:1022600000D000D0CDB7DEB78A837C836B834D83EB
:102270002E838A81883030F58A81882F90E0880FFC
:10228000991F880F991F880F991F80640E94640E00
:1022900019820EC08981282F30E08B819C81FC013E
:1022A000E20FF31F80810E944E0F89818F5F898327
:1022B0008981883078F38D816E810E94F9108A813E
:1022C0000E944E0F26960FB6F894DEBF0FBECDBF0C
:1022D000CF91DF910895DF93CF93CDB7DEB72E97DF
:1022E0000FB6F894DEBF0FBECDBF81E00E94640E32
:1022F00080E090E0A0E0B0E48B879C87AD87BE874C
:102300006B857C858D859E8520E030E04AEF54E426
:102310000E941F02DC01CB018F839887A987BA87AF
:102320006F81788589859A8520E030E040E85FE319
:102330000E94250488232CF481E090E09E838D8305
:102340003FC06F81788589859A8520E03FEF4FE710
:1023500057E40E94C50318164CF56B857C858D8566
:102360009E8520E030E040E251E40E941F02DC0143
:10237000CB01BC01CD010E944900DC01CB019E8351
:102380008D830FC088EC90E09C838B838B819C8134
:102390000197F1F79C838B838D819E8101979E83AA
:1023A0008D838D819E81009769F714C06F81788538
:1023B00089859A850E944900DC01CB019E838D832B
:1023C0008D819E819A83898389819A810197F1F712
:1023D0009A8389832E960FB6F894DEBF0FBECDBFC9
:1023E000CF91DF910895DF93CF93CDB7DEB7A3E50B
:1023F000B0E0E3E5F0E080818F7B8C93A3E5B0E073
:10240000E3E5F0E08081877F8C93E2E5F0E080EC0B
:102410008083A3E5B0E0E3E5F0E080818B7F8C93DF
:10242000A3E5B0E0E3E5F0E0808182608C93A3E572
:10243000B0E0E3E5F0E080818E7F8C93CF91DF9177
:102440000895DF93CF93CDB7DEB7CF91DF91089595
:102450001F920F920FB60F9211242F933F934F9319
:102460005F936F937F938F939F93AF93BF93EF93FC
:10247000FF93DF93CF93CDB7DEB780918400909127
:10248000850001969093850080938400809184005C
:10249000909185002FE08334920799F4E2E5F0E013
:1024A00080EC8083109285001092840080918000DF
:1024B00090918100009729F0E0918000F0918100D7
:1024C0000995CF91DF91FF91EF91BF91AF919F91CE
:1024D0008F917F916F915F914F913F912F910F90CD
:1024E0000FBE0F901F901895DF93CF9300D00F92DF
:1024F000CDB7DEB79B838A8381E089838A819B8104
:10250000009739F08A819B819093810080938000AD
:1025100001C01982A9E5B0E0E9E5F0E080818160C1
:102520008C9389810F900F900F90CF91DF91089538
:102530001F920F920FB60F9211242F933F934F9338
:102540005F936F937F938F939F93AF93BF93EF931B
:10255000FF93DF93CF93CDB7DEB780918600909144
:102560008700019690938700809386008091860073
:102570009091870027E28031920779F410928700CA
:10258000109286008091820090918300009729F03C
:10259000E0918200F09183000995A9E5B0E0E9E5BA
:1025A000F0E0808182608C93CF91DF91FF91EF9179
:1025B000BF91AF919F918F917F916F915F914F915B
:1025C0003F912F910F900FBE0F901F901895DF93A2
:1025D000CF9300D00F92CDB7DEB79B838A8381E083
:1025E00089838A819B81009739F08A819B819093AE
:1025F00083008093820001C0198289810F900F901F
:102600000F90CF91DF910895DF93CF930F92CDB7C5
:10261000DEB78983ECE5F0E0898180830F90CF916C
:10262000DF910895DF93CF93CDB7DEB7AEE4B0E08E
:10263000EEE4F0E0808180618C93AEE4B0E0EEE403
:10264000F0E0808188608C93AFE4B0E0EFE4F0E0EC
:10265000808182608C93AFE4B0E0EFE4F0E08081B1
:102660008E7F8C93AFE4B0E0EFE4F0E0808180688F
:102670008C93AFE4B0E0EFE4F0E080818F7B8C934B
:10268000E6E4F0E08FE19EE491838083EAE4F0E009
:1026900087EE93E091838083AEE4B0E0EEE4F0E077
:1026A00080818B7F8C93AEE4B0E0EEE4F0E080813B
:1026B00082608C93AEE4B0E0EEE4F0E080818E7F47
:1026C0008C93CF91DF910895DF93CF9300D0CDB756
:1026D000DEB79A838983E6E4F0E089819A81918369
:1026E00080830F900F90CF91DF910895DF93CF9368
:1026F000CDB7DEB7AEE4B0E0EEE4F0E08081887FF5
:102700008C93CF91DF910895DF93CF93CDB7DEB750
:10271000E2E5F0E01082CF91DF910895DF93CF934F
:10272000CDB7DEB7E2E5F0E08081CF91DF9108958B
:10273000DF93CF930F92CDB7DEB78FEF89830E94DF
:102740004F060E94A10B0E94760A0E940D14CE0132
:1027500001960E94920A04C0CE0101960E94920A3C
:1027600089818335C9F70E94F3118AEB93E10E94B6
:102770007412FFCFDF93CF93CDB7DEB7809188007F
:10278000882331F0809188008150809388001CC09C
:102790008BE38093880080918900882331F08091B9
:1027A00089008150809389000FC08BE3809389005A
:1027B00080918A00882331F080918A008150809333
:1027C0008A0002C010928A000E946B1180918A00D8
:1027D000882F90E0A0E0B0E0BC01CD010E94651020
:1027E0008AE30E944E0F80918900882F90E0A0E03C
:1027F000B0E0BC01CD010E9465108AE30E944E0F3B
:1028000080918800882F90E0A0E0B0E0BC01CD016D
:102810000E946510CF91DF910895DF93CF9300D090
:1028200000D00F92CDB7DEB71C821B821A821982AC
:102830008FEF8D830E946B1181E060E00E94F910A0
:102840008B81882F90E0A0E0B0E0BC01CD010E9418
:10285000651081E062E00E94F9108AE30E944E0F49
:102860008A81882F90E0A0E0B0E0BC01CD010E94F9
:10287000651081E065E00E94F9108AE30E944E0F26
:102880008981882F90E0A0E0B0E0BC01CD010E94DA
:102890006510CE0105960E94920A8D818F3FC9F383
:1028A0008D818A3008F065C08C818823F9F48B8192
:1028B000882F90E09C01220F331FC901880F991FB8
:1028C000880F991F820F931F982F8D81890F8B83FB
:1028D00081E060E00E94F9108B81882F90E0A0E0F9
:1028E000B0E0BC01CD010E94651043C08C818130F5
:1028F000F9F48A81882F90E09C01220F331FC901CF
:10290000880F991F880F991F820F931F982F8D8111
:10291000890F8A8381E063E00E94F9108A81882F01
:1029200090E0A0E0B0E0BC01CD010E94651021C0A4
:102930008C818230F1F48981882F90E09C01220FF4
:10294000331FC901880F991F880F991F820F931F8A
:10295000982F8D81890F898381E066E00E94F910AC
:102960008981882F90E0A0E0B0E0BC01CD010E94F9
:1029700065108D81823559F48C81882F90E0019605
:1029800023E030E0B9010E94EA148C8382CF8D816C
:102990008C3459F48C81882F90E0029623E030E04B
:1029A000B9010E94EA148C8374CF8D81853409F0BB
:1029B00070CF8B8180938A008A818093890089817E
:1029C000809388000F900F900F900F900F90CF91F1
:1029D000DF91089597FB092E07260AD077FD04D0D2
:1029E00027D006D000201AF4709561957F4F089586
:1029F000F6F7909581959F4F089597FB092E052630
:102A00000ED057FD04D028D00AD0001C38F45095C1
:102A10004095309521953F4F4F4F5F4F0895F6F702
:102A200090958095709561957F4F8F4F9F4F08953A
:102A3000AA1BBB1B51E107C0AA1FBB1FA617B707E4
:102A400010F0A61BB70B881F991F5A95A9F7809500
:102A50009095BC01CD010895A1E21A2EAA1BBB1BC3
:102A6000FD010DC0AA1FBB1FEE1FFF1FA217B3075A
:102A7000E407F50720F0A21BB30BE40BF50B661F70
:102A8000771F881F991F1A9469F760957095809534
:102A900090959B01AC01BD01CF0108952F923F920B
:102AA0004F925F926F927F928F929F92AF92BF925E
:102AB000CF92DF92EF92FF920F931F93CF93DF930A
:102AC000CDB7DEB7CA1BDB0B0FB6F894DEBF0FBE67
:102AD000CDBF09942A88398848885F846E847D84B4
:102AE0008C849B84AA84B984C884DF80EE80FD80B6
:102AF0000C811B81AA81B981CE0FD11D0FB6F8942C
:0E2B0000DEBF0FBECDBFED010895F894FFCFEC
:102B0E0000000000000000000102032B0405062D4A
:102B1E00070809454C522F5300010203040506070E
:00000001FF
